{
  "contractName": "demo",
  "abi": [
    {
      "inputs": [],
      "payable": false,
      "stateMutability": "nonpayable",
      "type": "constructor"
    },
    {
      "constant": false,
      "inputs": [
        {
          "internalType": "string",
          "name": "a",
          "type": "string"
        }
      ],
      "name": "insertMessage",
      "outputs": [],
      "payable": false,
      "stateMutability": "nonpayable",
      "type": "function"
    },
    {
      "constant": true,
      "inputs": [],
      "name": "readMessage",
      "outputs": [
        {
          "internalType": "string[]",
          "name": "",
          "type": "string[]"
        }
      ],
      "payable": false,
      "stateMutability": "view",
      "type": "function"
    }
  ],
  "bytecode": "0x608060405234801561001057600080fd5b5033600160006101000a81548173ffffffffffffffffffffffffffffffffffffffff021916908373ffffffffffffffffffffffffffffffffffffffff16021790555061055c806100616000396000f3fe608060405234801561001057600080fd5b50600436106100365760003560e01c8063031d5d011461003b578063f198bfca14610059575b600080fd5b610043610075565b60405161005091906103f6565b60405180910390f35b610073600480360361006e91908101906102f3565b61015e565b005b60606000805480602002602001604051908101604052809291908181526020016000905b82821015610155578382906000526020600020018054600181600116156101000203166002900480601f0160208091040260200160405190810160405280929190818152602001828054600181600116156101000203166002900480156101415780601f1061011657610100808354040283529160200191610141565b820191906000526020600020905b81548152906001019060200180831161012457829003601f168201915b505050505081526020019060010190610099565b50505050905090565b600160009054906101000a900473ffffffffffffffffffffffffffffffffffffffff1673ffffffffffffffffffffffffffffffffffffffff163373ffffffffffffffffffffffffffffffffffffffff16146101b857600080fd5b60008190806001815401808255809150509060018203906000526020600020016000909192909190915090805190602001906101f59291906101fa565b505050565b828054600181600116156101000203166002900490600052602060002090601f016020900481019282601f1061023b57805160ff1916838001178555610269565b82800160010185558215610269579182015b8281111561026857825182559160200191906001019061024d565b5b509050610276919061027a565b5090565b61029c91905b80821115610298576000816000905550600101610280565b5090565b90565b600082601f8301126102b057600080fd5b81356102c36102be82610445565b610418565b915080825260208301602083018583830111156102df57600080fd5b6102ea8382846104c6565b50505092915050565b60006020828403121561030557600080fd5b600082013567ffffffffffffffff81111561031f57600080fd5b61032b8482850161029f565b91505092915050565b600061034083836103bd565b905092915050565b600061035382610481565b61035d81856104a4565b93508360208202850161036f85610471565b8060005b858110156103ab578484038952815161038c8582610334565b945061039783610497565b925060208a01995050600181019050610373565b50829750879550505050505092915050565b60006103c88261048c565b6103d281856104b5565b93506103e28185602086016104d5565b6103eb81610508565b840191505092915050565b600060208201905081810360008301526104108184610348565b905092915050565b6000604051905081810181811067ffffffffffffffff8211171561043b57600080fd5b8060405250919050565b600067ffffffffffffffff82111561045c57600080fd5b601f19601f8301169050602081019050919050565b6000819050602082019050919050565b600081519050919050565b600081519050919050565b6000602082019050919050565b600082825260208201905092915050565b600082825260208201905092915050565b82818337600083830152505050565b60005b838110156104f35780820151818401526020810190506104d8565b83811115610502576000848401525b50505050565b6000601f19601f830116905091905056fea365627a7a7231582072a0768eaa51e734addbe821b90741efc504da8442c02c2d9953387dc7d1464e6c6578706572696d656e74616cf564736f6c63430005100040",
  "source": "// SPDX-License-Identifier: MIT\npragma solidity >=0.4.22 <0.9.0;\npragma experimental ABIEncoderV2;\n\ncontract demo {\n  \n  string[] m; // state variable (hi - 2), (hello - 5)\n  address owner;\n\n  constructor() public { // constructor will be called only when this contract is deployed\n    owner=msg.sender; // the person who sends the msg is owner\n  }\n\n  modifier onlyOwner() { // function modifier\n    require(msg.sender==owner); // owner - 1st wallet, and non-owner (user - 2nd wallet)\n    _;\n  }\n\n  // a function to store a message\n  function insertMessage(string memory a) public onlyOwner {\n    m.push(a); // assign value of a to m\n  }\n\n  // a function to read a message\n  function readMessage() public view returns(string[] memory) {\n    return(m);\n  }\n\n}\n",
  "sourcePath": "/Users/maddysravs/Desktop/test-smart-contract/contracts/demo.sol",
  "compiler": {
    "name": "solc",
    "version": "0.5.16+commit.9c3226ce.Emscripten.clang"
  },
  "schemaVersion": "3.4.8",
  "updatedAt": "2022-08-11T13:16:21.422Z",
  "networkType": "ethereum",
  "devdoc": {
    "methods": {}
  },
  "userdoc": {
    "methods": {}
  }
}